{
  "_format": "hh-sol-artifact-1",
  "contractName": "MarineCoin",
  "sourceName": "contracts/MarineCoin.sol",
  "abi": [
    {
      "inputs": [],
      "stateMutability": "nonpayable",
      "type": "constructor"
    },
    {
      "anonymous": false,
      "inputs": [
        {
          "indexed": true,
          "internalType": "address",
          "name": "_owner",
          "type": "address"
        },
        {
          "indexed": true,
          "internalType": "address",
          "name": "_spender",
          "type": "address"
        },
        {
          "indexed": false,
          "internalType": "uint256",
          "name": "_value",
          "type": "uint256"
        }
      ],
      "name": "Approval",
      "type": "event"
    },
    {
      "anonymous": false,
      "inputs": [
        {
          "indexed": true,
          "internalType": "address",
          "name": "_from",
          "type": "address"
        },
        {
          "indexed": true,
          "internalType": "address",
          "name": "_to",
          "type": "address"
        },
        {
          "indexed": false,
          "internalType": "uint256",
          "name": "_value",
          "type": "uint256"
        }
      ],
      "name": "Transfer",
      "type": "event"
    },
    {
      "inputs": [],
      "name": "Main",
      "outputs": [
        {
          "internalType": "address",
          "name": "",
          "type": "address"
        }
      ],
      "stateMutability": "view",
      "type": "function"
    },
    {
      "inputs": [],
      "name": "MaxSupply",
      "outputs": [
        {
          "internalType": "uint256",
          "name": "",
          "type": "uint256"
        }
      ],
      "stateMutability": "view",
      "type": "function"
    },
    {
      "inputs": [],
      "name": "Name",
      "outputs": [
        {
          "internalType": "string",
          "name": "",
          "type": "string"
        }
      ],
      "stateMutability": "view",
      "type": "function"
    },
    {
      "inputs": [],
      "name": "Symbol",
      "outputs": [
        {
          "internalType": "string",
          "name": "",
          "type": "string"
        }
      ],
      "stateMutability": "view",
      "type": "function"
    },
    {
      "inputs": [
        {
          "internalType": "address",
          "name": "",
          "type": "address"
        },
        {
          "internalType": "address",
          "name": "",
          "type": "address"
        }
      ],
      "name": "allowance",
      "outputs": [
        {
          "internalType": "uint256",
          "name": "",
          "type": "uint256"
        }
      ],
      "stateMutability": "view",
      "type": "function"
    },
    {
      "inputs": [
        {
          "internalType": "address",
          "name": "_spender",
          "type": "address"
        },
        {
          "internalType": "uint256",
          "name": "_value",
          "type": "uint256"
        }
      ],
      "name": "approve",
      "outputs": [
        {
          "internalType": "bool",
          "name": "success",
          "type": "bool"
        }
      ],
      "stateMutability": "nonpayable",
      "type": "function"
    },
    {
      "inputs": [
        {
          "internalType": "address",
          "name": "",
          "type": "address"
        }
      ],
      "name": "coinBalance",
      "outputs": [
        {
          "internalType": "uint256",
          "name": "",
          "type": "uint256"
        }
      ],
      "stateMutability": "view",
      "type": "function"
    },
    {
      "inputs": [
        {
          "internalType": "address",
          "name": "_to",
          "type": "address"
        },
        {
          "internalType": "uint256",
          "name": "_value",
          "type": "uint256"
        }
      ],
      "name": "transfer",
      "outputs": [
        {
          "internalType": "bool",
          "name": "success",
          "type": "bool"
        }
      ],
      "stateMutability": "payable",
      "type": "function"
    },
    {
      "inputs": [
        {
          "internalType": "address",
          "name": "_from",
          "type": "address"
        },
        {
          "internalType": "address",
          "name": "_to",
          "type": "address"
        },
        {
          "internalType": "uint256",
          "name": "_value",
          "type": "uint256"
        }
      ],
      "name": "transferFrom",
      "outputs": [
        {
          "internalType": "bool",
          "name": "success",
          "type": "bool"
        }
      ],
      "stateMutability": "nonpayable",
      "type": "function"
    },
    {
      "inputs": [
        {
          "internalType": "address",
          "name": "_from",
          "type": "address"
        },
        {
          "internalType": "uint256",
          "name": "_value",
          "type": "uint256"
        }
      ],
      "name": "transferSell",
      "outputs": [
        {
          "internalType": "bool",
          "name": "success",
          "type": "bool"
        }
      ],
      "stateMutability": "nonpayable",
      "type": "function"
    }
  ],
  "bytecode": "0x60806040526402540be40060005534801561001957600080fd5b50600054600160003373ffffffffffffffffffffffffffffffffffffffff1673ffffffffffffffffffffffffffffffffffffffff16815260200190815260200160002081905550610e598061006f6000396000f3fe6080604052600436106100915760003560e01c8063a9059cbb11610059578063a9059cbb146101a3578063b36c1284146101d3578063d62b6f7e146101fe578063dd62ed3e14610229578063fabde80c1461026657610091565b8063095ea7b31461009657806323b872dd146100d35780633045aaf3146101105780636bc896671461013b5780638052474d14610178575b600080fd5b3480156100a257600080fd5b506100bd60048036038101906100b891906109ef565b6102a3565b6040516100ca9190610b15565b60405180910390f35b3480156100df57600080fd5b506100fa60048036038101906100f591906109a0565b6103a7565b6040516101079190610b15565b60405180910390f35b34801561011c57600080fd5b506101256105a1565b6040516101329190610b30565b60405180910390f35b34801561014757600080fd5b50610162600480360381019061015d91906109ef565b6105da565b60405161016f9190610b15565b60405180910390f35b34801561018457600080fd5b5061018d6106de565b60405161019a9190610b30565b60405180910390f35b6101bd60048036038101906101b891906109ef565b610717565b6040516101ca9190610b15565b60405180910390f35b3480156101df57600080fd5b506101e86108b6565b6040516101f59190610bb2565b60405180910390f35b34801561020a57600080fd5b506102136108bc565b6040516102209190610afa565b60405180910390f35b34801561023557600080fd5b50610250600480360381019061024b9190610964565b6108d4565b60405161025d9190610bb2565b60405180910390f35b34801561027257600080fd5b5061028d6004803603810190610288919061093b565b6108f9565b60405161029a9190610bb2565b60405180910390f35b600081600260003373ffffffffffffffffffffffffffffffffffffffff1673ffffffffffffffffffffffffffffffffffffffff16815260200190815260200160002060008573ffffffffffffffffffffffffffffffffffffffff1673ffffffffffffffffffffffffffffffffffffffff16815260200190815260200160002060008282546103319190610be9565b925050819055508273ffffffffffffffffffffffffffffffffffffffff163373ffffffffffffffffffffffffffffffffffffffff167f8c5be1e5ebec7d5bd14f71427d1e84f3dd0314c0f7b2291e5b200ac8c7c3b925846040516103959190610bb2565b60405180910390a36001905092915050565b600081600160008673ffffffffffffffffffffffffffffffffffffffff1673ffffffffffffffffffffffffffffffffffffffff16815260200190815260200160002054101561042b576040517f08c379a000000000000000000000000000000000000000000000000000000000815260040161042290610b92565b60405180910390fd5b81600260008673ffffffffffffffffffffffffffffffffffffffff1673ffffffffffffffffffffffffffffffffffffffff16815260200190815260200160002060003373ffffffffffffffffffffffffffffffffffffffff1673ffffffffffffffffffffffffffffffffffffffff1681526020019081526020016000205410156104ea576040517f08c379a00000000000000000000000000000000000000000000000000000000081526004016104e190610b52565b60405180910390fd5b81600160008673ffffffffffffffffffffffffffffffffffffffff1673ffffffffffffffffffffffffffffffffffffffff16815260200190815260200160002060008282546105399190610c3f565b9250508190555081600160008573ffffffffffffffffffffffffffffffffffffffff1673ffffffffffffffffffffffffffffffffffffffff168152602001908152602001600020600082825461058f9190610be9565b92505081905550600190509392505050565b6040518060400160405280600381526020017f4d4143000000000000000000000000000000000000000000000000000000000081525081565b600081600160008573ffffffffffffffffffffffffffffffffffffffff1673ffffffffffffffffffffffffffffffffffffffff16815260200190815260200160002054101561062857600080fd5b81600160008573ffffffffffffffffffffffffffffffffffffffff1673ffffffffffffffffffffffffffffffffffffffff16815260200190815260200160002060008282546106779190610c3f565b9250508190555081600160003373ffffffffffffffffffffffffffffffffffffffff1673ffffffffffffffffffffffffffffffffffffffff16815260200190815260200160002060008282546106cd9190610be9565b925050819055506001905092915050565b6040518060400160405280600b81526020017f4d6172696e6520436f696e00000000000000000000000000000000000000000081525081565b600081600160003373ffffffffffffffffffffffffffffffffffffffff1673ffffffffffffffffffffffffffffffffffffffff16815260200190815260200160002054101561079b576040517f08c379a000000000000000000000000000000000000000000000000000000000815260040161079290610b72565b60405180910390fd5b81600160003373ffffffffffffffffffffffffffffffffffffffff1673ffffffffffffffffffffffffffffffffffffffff16815260200190815260200160002060008282546107ea9190610c3f565b9250508190555081600160008573ffffffffffffffffffffffffffffffffffffffff1673ffffffffffffffffffffffffffffffffffffffff16815260200190815260200160002060008282546108409190610be9565b925050819055508273ffffffffffffffffffffffffffffffffffffffff163373ffffffffffffffffffffffffffffffffffffffff167fddf252ad1be2c89b69c2b068fc378daa952ba7f163c4a11628f55a4df523b3ef846040516108a49190610bb2565b60405180910390a36001905092915050565b60005481565b73b94f221de033017b59fd18a563419f68b07c23a481565b6002602052816000526040600020602052806000526040600020600091509150505481565b60016020528060005260406000206000915090505481565b60008135905061092081610df5565b92915050565b60008135905061093581610e0c565b92915050565b60006020828403121561094d57600080fd5b600061095b84828501610911565b91505092915050565b6000806040838503121561097757600080fd5b600061098585828601610911565b925050602061099685828601610911565b9150509250929050565b6000806000606084860312156109b557600080fd5b60006109c386828701610911565b93505060206109d486828701610911565b92505060406109e586828701610926565b9150509250925092565b60008060408385031215610a0257600080fd5b6000610a1085828601610911565b9250506020610a2185828601610926565b9150509250929050565b610a3481610c73565b82525050565b610a4381610c85565b82525050565b6000610a5482610bcd565b610a5e8185610bd8565b9350610a6e818560208601610cbb565b610a7781610d1d565b840191505092915050565b6000610a8f602483610bd8565b9150610a9a82610d2e565b604082019050919050565b6000610ab2601783610bd8565b9150610abd82610d7d565b602082019050919050565b6000610ad5602283610bd8565b9150610ae082610da6565b604082019050919050565b610af481610cb1565b82525050565b6000602082019050610b0f6000830184610a2b565b92915050565b6000602082019050610b2a6000830184610a3a565b92915050565b60006020820190508181036000830152610b4a8184610a49565b905092915050565b60006020820190508181036000830152610b6b81610a82565b9050919050565b60006020820190508181036000830152610b8b81610aa5565b9050919050565b60006020820190508181036000830152610bab81610ac8565b9050919050565b6000602082019050610bc76000830184610aeb565b92915050565b600081519050919050565b600082825260208201905092915050565b6000610bf482610cb1565b9150610bff83610cb1565b9250827fffffffffffffffffffffffffffffffffffffffffffffffffffffffffffffffff03821115610c3457610c33610cee565b5b828201905092915050565b6000610c4a82610cb1565b9150610c5583610cb1565b925082821015610c6857610c67610cee565b5b828203905092915050565b6000610c7e82610c91565b9050919050565b60008115159050919050565b600073ffffffffffffffffffffffffffffffffffffffff82169050919050565b6000819050919050565b60005b83811015610cd9578082015181840152602081019050610cbe565b83811115610ce8576000848401525b50505050565b7f4e487b7100000000000000000000000000000000000000000000000000000000600052601160045260246000fd5b6000601f19601f8301169050919050565b7f796f757220616c6c6f77616e6e6e6365206973206c657373207468616e20646560008201527f6d616e6400000000000000000000000000000000000000000000000000000000602082015250565b7f446f6e74206861766520656e6f75676820746f6b656e73000000000000000000600082015250565b7f646f6e74206861766520656e6f75676820746f6b656e7320746f20617070726f60008201527f7665000000000000000000000000000000000000000000000000000000000000602082015250565b610dfe81610c73565b8114610e0957600080fd5b50565b610e1581610cb1565b8114610e2057600080fd5b5056fea2646970667358221220fb4183d4f9d03601ed544c49442550b3669d821c03d819a111e0cbc376922d5d64736f6c63430008040033",
  "linkReferences": {},
  "deployedLinkReferences": {}
}