{
  "_format": "hh-sol-artifact-1",
  "contractName": "tokenTransaction",
  "sourceName": "contracts/CoinTransaction.sol",
  "abi": [
    {
      "inputs": [
        {
          "internalType": "contract MarineCoin",
          "name": "_MAR",
          "type": "address"
        }
      ],
      "stateMutability": "nonpayable",
      "type": "constructor"
    },
    {
      "anonymous": false,
      "inputs": [
        {
          "indexed": false,
          "internalType": "address",
          "name": "_buyer",
          "type": "address"
        },
        {
          "indexed": false,
          "internalType": "uint256",
          "name": "_noOfTokens",
          "type": "uint256"
        }
      ],
      "name": "Buy",
      "type": "event"
    },
    {
      "anonymous": false,
      "inputs": [
        {
          "indexed": false,
          "internalType": "address",
          "name": "_seller",
          "type": "address"
        },
        {
          "indexed": false,
          "internalType": "uint256",
          "name": "_noOfTokens",
          "type": "uint256"
        }
      ],
      "name": "Sell",
      "type": "event"
    },
    {
      "inputs": [],
      "name": "MAR",
      "outputs": [
        {
          "internalType": "contract MarineCoin",
          "name": "",
          "type": "address"
        }
      ],
      "stateMutability": "view",
      "type": "function"
    },
    {
      "inputs": [],
      "name": "TokenPrice",
      "outputs": [
        {
          "internalType": "uint256",
          "name": "",
          "type": "uint256"
        }
      ],
      "stateMutability": "view",
      "type": "function"
    },
    {
      "inputs": [
        {
          "internalType": "uint256",
          "name": "_noOfTokens",
          "type": "uint256"
        }
      ],
      "name": "buyTokens",
      "outputs": [],
      "stateMutability": "payable",
      "type": "function"
    },
    {
      "inputs": [
        {
          "internalType": "uint256",
          "name": "_noOfTokens",
          "type": "uint256"
        }
      ],
      "name": "sellTokens",
      "outputs": [],
      "stateMutability": "payable",
      "type": "function"
    },
    {
      "inputs": [],
      "name": "tokenSold",
      "outputs": [
        {
          "internalType": "uint256",
          "name": "",
          "type": "uint256"
        }
      ],
      "stateMutability": "view",
      "type": "function"
    }
  ],
  "bytecode": "0x608060405234801561001057600080fd5b5060405162001015380380620010158339818101604052810190610034919061008f565b806000806101000a81548173ffffffffffffffffffffffffffffffffffffffff021916908373ffffffffffffffffffffffffffffffffffffffff16021790555050610113565b600081519050610089816100fc565b92915050565b6000602082840312156100a157600080fd5b60006100af8482850161007a565b91505092915050565b60006100c3826100dc565b9050919050565b60006100d5826100b8565b9050919050565b600073ffffffffffffffffffffffffffffffffffffffff82169050919050565b610105816100ca565b811461011057600080fd5b50565b610ef280620001236000396000f3fe60806040526004361061004a5760003560e01c8063141ddca71461004f5780633610724e1461007a578063519ee19e146100965780636c11bcd3146100c1578063e7b188c4146100dd575b600080fd5b34801561005b57600080fd5b50610064610108565b6040516100719190610bb6565b60405180910390f35b610094600480360381019061008f9190610989565b610113565b005b3480156100a257600080fd5b506100ab61054f565b6040516100b89190610bb6565b60405180910390f35b6100db60048036038101906100d69190610989565b610555565b005b3480156100e957600080fd5b506100f26108c6565b6040516100ff9190610afb565b60405180910390f35b66038d7ea4c6800081565b600060096101288366038d7ea4c680006108ea565b6101329190610c38565b90508160008054906101000a900473ffffffffffffffffffffffffffffffffffffffff1673ffffffffffffffffffffffffffffffffffffffff1663fabde80c306040518263ffffffff1660e01b815260040161018e9190610ab7565b60206040518083038186803b1580156101a657600080fd5b505afa1580156101ba573d6000803e3d6000fd5b505050506040513d601f19601f820116820180604052508101906101de91906109b2565b101561021f576040517f08c379a000000000000000000000000000000000000000000000000000000000815260040161021690610b56565b60405180910390fd5b806102318366038d7ea4c680006108ea565b61023b9190610be2565b34101561027d576040517f08c379a000000000000000000000000000000000000000000000000000000000815260040161027490610b36565b60405180910390fd5b60008054906101000a900473ffffffffffffffffffffffffffffffffffffffff1673ffffffffffffffffffffffffffffffffffffffff1663a9059cbb33846040518363ffffffff1660e01b81526004016102d8929190610ad2565b602060405180830381600087803b1580156102f257600080fd5b505af1158015610306573d6000803e3d6000fd5b505050506040513d601f19601f8201168201806040525081019061032a9190610960565b610369576040517f08c379a000000000000000000000000000000000000000000000000000000000815260040161036090610b96565b60405180910390fd5b730284404bb1048317290a9bf8db8d6acb54b1322073ffffffffffffffffffffffffffffffffffffffff166108fc6002836103a49190610c38565b9081150290604051600060405180830381858888f193505050506103fd576040517f08c379a00000000000000000000000000000000000000000000000000000000081526004016103f490610b76565b60405180910390fd5b73e7c9af11d5833c771a6c0c8eee188ed08e746c0b73ffffffffffffffffffffffffffffffffffffffff166108fc600a6104388460036108ea565b6104429190610c38565b9081150290604051600060405180830381858888f1935050505061049b576040517f08c379a000000000000000000000000000000000000000000000000000000000815260040161049290610b16565b60405180910390fd5b738e5475095a136b848b19c3178ed23fa8fef83f0873ffffffffffffffffffffffffffffffffffffffff166108fc6005836104d69190610c38565b9081150290604051600060405180830381858888f193505050506104f957600080fd5b816001600082825461050b9190610be2565b925050819055507fe3d4187f6ca4248660cc0ac8b8056515bac4a8132be2eca31d6d0cc170722a7e3383604051610543929190610ad2565b60405180910390a15050565b60015481565b60003390506000600a61056f8466038d7ea4c680006108ea565b6105799190610c38565b90508260008054906101000a900473ffffffffffffffffffffffffffffffffffffffff1673ffffffffffffffffffffffffffffffffffffffff1663fabde80c336040518263ffffffff1660e01b81526004016105d59190610ab7565b60206040518083038186803b1580156105ed57600080fd5b505afa158015610601573d6000803e3d6000fd5b505050506040513d601f19601f8201168201806040525081019061062591906109b2565b101561063057600080fd5b6106418366038d7ea4c680006108ea565b47101561064d57600080fd5b60008054906101000a900473ffffffffffffffffffffffffffffffffffffffff1673ffffffffffffffffffffffffffffffffffffffff16636bc8966733856040518363ffffffff1660e01b81526004016106a8929190610ad2565b602060405180830381600087803b1580156106c257600080fd5b505af11580156106d6573d6000803e3d6000fd5b505050506040513d601f19601f820116820180604052508101906106fa9190610960565b61070357600080fd5b8173ffffffffffffffffffffffffffffffffffffffff166108fc6107288360096108ea565b9081150290604051600060405180830381858888f1935050505061074b57600080fd5b730284404bb1048317290a9bf8db8d6acb54b1322073ffffffffffffffffffffffffffffffffffffffff166108fc6002836107869190610c38565b9081150290604051600060405180830381858888f193505050506107a957600080fd5b73e7c9af11d5833c771a6c0c8eee188ed08e746c0b73ffffffffffffffffffffffffffffffffffffffff166108fc600a6107e48460036108ea565b6107ee9190610c38565b9081150290604051600060405180830381858888f1935050505061081157600080fd5b738e5475095a136b848b19c3178ed23fa8fef83f0873ffffffffffffffffffffffffffffffffffffffff166108fc60058361084c9190610c38565b9081150290604051600060405180830381858888f1935050505061086f57600080fd5b82600160008282546108819190610cc3565b925050819055507f5e5e995ce3133561afceaa51a9a154d5db228cd7525d34df5185582c18d3df0933846040516108b9929190610ad2565b60405180910390a1505050565b60008054906101000a900473ffffffffffffffffffffffffffffffffffffffff1681565b6000808214806109125750828283856109039190610c69565b9250826109109190610c38565b145b61091b57600080fd5b92915050565b60008151905061093081610e8e565b92915050565b60008135905061094581610ea5565b92915050565b60008151905061095a81610ea5565b92915050565b60006020828403121561097257600080fd5b600061098084828501610921565b91505092915050565b60006020828403121561099b57600080fd5b60006109a984828501610936565b91505092915050565b6000602082840312156109c457600080fd5b60006109d28482850161094b565b91505092915050565b6109e481610cf7565b82525050565b6109f381610d3f565b82525050565b6000610a06601883610bd1565b9150610a1182610dc1565b602082019050919050565b6000610a29601183610bd1565b9150610a3482610dea565b602082019050919050565b6000610a4c601c83610bd1565b9150610a5782610e13565b602082019050919050565b6000610a6f601883610bd1565b9150610a7a82610e3c565b602082019050919050565b6000610a92601383610bd1565b9150610a9d82610e65565b602082019050919050565b610ab181610d35565b82525050565b6000602082019050610acc60008301846109db565b92915050565b6000604082019050610ae760008301856109db565b610af46020830184610aa8565b9392505050565b6000602082019050610b1060008301846109ea565b92915050565b60006020820190508181036000830152610b2f816109f9565b9050919050565b60006020820190508181036000830152610b4f81610a1c565b9050919050565b60006020820190508181036000830152610b6f81610a3f565b9050919050565b60006020820190508181036000830152610b8f81610a62565b9050919050565b60006020820190508181036000830152610baf81610a85565b9050919050565b6000602082019050610bcb6000830184610aa8565b92915050565b600082825260208201905092915050565b6000610bed82610d35565b9150610bf883610d35565b9250827fffffffffffffffffffffffffffffffffffffffffffffffffffffffffffffffff03821115610c2d57610c2c610d63565b5b828201905092915050565b6000610c4382610d35565b9150610c4e83610d35565b925082610c5e57610c5d610d92565b5b828204905092915050565b6000610c7482610d35565b9150610c7f83610d35565b9250817fffffffffffffffffffffffffffffffffffffffffffffffffffffffffffffffff0483118215151615610cb857610cb7610d63565b5b828202905092915050565b6000610cce82610d35565b9150610cd983610d35565b925082821015610cec57610ceb610d63565b5b828203905092915050565b6000610d0282610d15565b9050919050565b60008115159050919050565b600073ffffffffffffffffffffffffffffffffffffffff82169050919050565b6000819050919050565b6000610d4a82610d51565b9050919050565b6000610d5c82610d15565b9050919050565b7f4e487b7100000000000000000000000000000000000000000000000000000000600052601160045260246000fd5b7f4e487b7100000000000000000000000000000000000000000000000000000000600052601260045260246000fd5b7f6c697175696469747920636f6d6d6973696f6e2073656e740000000000000000600082015250565b7f6e6f7420656e6f75676820657468657273000000000000000000000000000000600082015250565b7f6e6f7420656e6f75676820636f696e7320696e20636f6e747261637400000000600082015250565b7f6d61726b6574696e6720636f6d6d6973696f6e2073656e740000000000000000600082015250565b7f636f696e207472616e666572206661696c656400000000000000000000000000600082015250565b610e9781610d09565b8114610ea257600080fd5b50565b610eae81610d35565b8114610eb957600080fd5b5056fea2646970667358221220d09b951337a00a7281433a3b4907a292285cf8293b23ba56a18b90e08d30852e64736f6c63430008040033",
  "linkReferences": {},
  "deployedLinkReferences": {}
}